{
  "contractName": "Voting",
  "abi": [
    {
      "anonymous": false,
      "inputs": [
        {
          "indexed": true,
          "internalType": "address",
          "name": "previousOwner",
          "type": "address"
        },
        {
          "indexed": true,
          "internalType": "address",
          "name": "newOwner",
          "type": "address"
        }
      ],
      "name": "OwnershipTransferred",
      "type": "event"
    },
    {
      "anonymous": false,
      "inputs": [
        {
          "indexed": false,
          "internalType": "uint256",
          "name": "proposalId",
          "type": "uint256"
        }
      ],
      "name": "ProposalRegistred",
      "type": "event"
    },
    {
      "anonymous": false,
      "inputs": [],
      "name": "ProposalsRegistrationEnded",
      "type": "event"
    },
    {
      "anonymous": false,
      "inputs": [],
      "name": "ProposalsRegistrationStarted",
      "type": "event"
    },
    {
      "anonymous": false,
      "inputs": [
        {
          "indexed": false,
          "internalType": "address",
          "name": "voter",
          "type": "address"
        },
        {
          "indexed": false,
          "internalType": "uint256",
          "name": "proposalId",
          "type": "uint256"
        }
      ],
      "name": "Voted",
      "type": "event"
    },
    {
      "anonymous": false,
      "inputs": [
        {
          "indexed": false,
          "internalType": "address",
          "name": "voterAddress",
          "type": "address"
        }
      ],
      "name": "VoterRegistrered",
      "type": "event"
    },
    {
      "anonymous": false,
      "inputs": [],
      "name": "VotesTallied",
      "type": "event"
    },
    {
      "anonymous": false,
      "inputs": [],
      "name": "VotingSessionEnded",
      "type": "event"
    },
    {
      "anonymous": false,
      "inputs": [],
      "name": "VotingSessionStarted",
      "type": "event"
    },
    {
      "anonymous": false,
      "inputs": [
        {
          "indexed": false,
          "internalType": "enum Voting.WorkflowStatus",
          "name": "previousStatus",
          "type": "uint8"
        },
        {
          "indexed": false,
          "internalType": "enum Voting.WorkflowStatus",
          "name": "newStatus",
          "type": "uint8"
        }
      ],
      "name": "WorkflowStatusChange",
      "type": "event"
    },
    {
      "inputs": [
        {
          "internalType": "address",
          "name": "",
          "type": "address"
        }
      ],
      "name": "RegisteredVoters",
      "outputs": [
        {
          "internalType": "bool",
          "name": "isRegistred",
          "type": "bool"
        },
        {
          "internalType": "bool",
          "name": "hasVoted",
          "type": "bool"
        },
        {
          "internalType": "uint256",
          "name": "votedProposalId",
          "type": "uint256"
        }
      ],
      "stateMutability": "view",
      "type": "function",
      "constant": true
    },
    {
      "inputs": [
        {
          "internalType": "uint256",
          "name": "",
          "type": "uint256"
        }
      ],
      "name": "addresses",
      "outputs": [
        {
          "internalType": "address",
          "name": "",
          "type": "address"
        }
      ],
      "stateMutability": "view",
      "type": "function",
      "constant": true
    },
    {
      "inputs": [],
      "name": "currentWorkflowStatus",
      "outputs": [
        {
          "internalType": "enum Voting.WorkflowStatus",
          "name": "",
          "type": "uint8"
        }
      ],
      "stateMutability": "view",
      "type": "function",
      "constant": true
    },
    {
      "inputs": [],
      "name": "owner",
      "outputs": [
        {
          "internalType": "address",
          "name": "",
          "type": "address"
        }
      ],
      "stateMutability": "view",
      "type": "function",
      "constant": true
    },
    {
      "inputs": [
        {
          "internalType": "uint256",
          "name": "",
          "type": "uint256"
        }
      ],
      "name": "proposals",
      "outputs": [
        {
          "internalType": "string",
          "name": "description",
          "type": "string"
        },
        {
          "internalType": "uint256",
          "name": "voteCount",
          "type": "uint256"
        }
      ],
      "stateMutability": "view",
      "type": "function",
      "constant": true
    },
    {
      "inputs": [],
      "name": "renounceOwnership",
      "outputs": [],
      "stateMutability": "nonpayable",
      "type": "function"
    },
    {
      "inputs": [
        {
          "internalType": "address",
          "name": "newOwner",
          "type": "address"
        }
      ],
      "name": "transferOwnership",
      "outputs": [],
      "stateMutability": "nonpayable",
      "type": "function"
    },
    {
      "inputs": [],
      "name": "getProposals",
      "outputs": [
        {
          "components": [
            {
              "internalType": "string",
              "name": "description",
              "type": "string"
            },
            {
              "internalType": "uint256",
              "name": "voteCount",
              "type": "uint256"
            }
          ],
          "internalType": "struct Voting.Proposal[]",
          "name": "",
          "type": "tuple[]"
        }
      ],
      "stateMutability": "view",
      "type": "function",
      "constant": true
    },
    {
      "inputs": [],
      "name": "getAddresses",
      "outputs": [
        {
          "internalType": "address[]",
          "name": "",
          "type": "address[]"
        }
      ],
      "stateMutability": "view",
      "type": "function",
      "constant": true
    },
    {
      "inputs": [
        {
          "internalType": "address",
          "name": "_address",
          "type": "address"
        }
      ],
      "name": "addVoterToList",
      "outputs": [],
      "stateMutability": "nonpayable",
      "type": "function"
    },
    {
      "inputs": [],
      "name": "startRegisteringProposal",
      "outputs": [],
      "stateMutability": "nonpayable",
      "type": "function"
    },
    {
      "inputs": [
        {
          "internalType": "string",
          "name": "_description",
          "type": "string"
        }
      ],
      "name": "addProposal",
      "outputs": [],
      "stateMutability": "nonpayable",
      "type": "function"
    },
    {
      "inputs": [],
      "name": "endOfRegisteringProposal",
      "outputs": [],
      "stateMutability": "nonpayable",
      "type": "function"
    },
    {
      "inputs": [],
      "name": "startVote",
      "outputs": [],
      "stateMutability": "nonpayable",
      "type": "function"
    },
    {
      "inputs": [
        {
          "internalType": "uint256",
          "name": "proposal_id",
          "type": "uint256"
        }
      ],
      "name": "DoingTheVote",
      "outputs": [],
      "stateMutability": "nonpayable",
      "type": "function"
    },
    {
      "inputs": [],
      "name": "endVote",
      "outputs": [],
      "stateMutability": "nonpayable",
      "type": "function"
    },
    {
      "inputs": [],
      "name": "TheWinnerIs",
      "outputs": [
        {
          "internalType": "uint256",
          "name": "",
          "type": "uint256"
        }
      ],
      "stateMutability": "nonpayable",
      "type": "function"
    },
    {
      "inputs": [],
      "name": "votesTallied",
      "outputs": [
        {
          "internalType": "uint256",
          "name": "",
          "type": "uint256"
        }
      ],
      "stateMutability": "nonpayable",
      "type": "function"
    },
    {
      "inputs": [],
      "name": "LookAtTheWinningProposal",
      "outputs": [
        {
          "internalType": "string",
          "name": "proposalName",
          "type": "string"
        }
      ],
      "stateMutability": "view",
      "type": "function",
      "constant": true
    }
  ],
  "bytecode": "0x608060405260006002556000600660006101000a81548160ff0219169083600581111561002857fe5b021790555034801561003957600080fd5b5060006100536100f6640100000000026401000000009004565b9050806000806101000a81548173ffffffffffffffffffffffffffffffffffffffff021916908373ffffffffffffffffffffffffffffffffffffffff1602179055508073ffffffffffffffffffffffffffffffffffffffff16600073ffffffffffffffffffffffffffffffffffffffff167f8be0079c531659141344cd1fd0a4f28419497f9722a3daafe3b4186f6b6457e060405160405180910390a3506100fe565b600033905090565b61237b8061010d6000396000f3fe608060405234801561001057600080fd5b506004361061013e576000357c0100000000000000000000000000000000000000000000000000000000900480638f20cd05116100ca578063d1f165d51161008e578063d1f165d5146102b8578063edf26d9b146102d6578063f2fde38b14610306578063f7ad764514610322578063fbed253a146103405761013e565b80638f20cd0514610238578063a39fac1214610254578063ada7415f14610272578063b922394614610290578063c5f3f7ae1461029a5761013e565b806362564c481161011157806362564c48146101b657806367ffc3c3146101d4578063715018a61461020657806377331897146102105780638da5cb5b1461021a5761013e565b8063013cf08b146101435780631930dc58146101745780632fdae3c5146101905780634c0a6af0146101ac575b600080fd5b61015d60048036038101906101589190611a0e565b61034a565b60405161016b929190611ff1565b60405180910390f35b61018e60048036038101906101899190611a0e565b610413565b005b6101aa60048036038101906101a591906119cd565b6106a5565b005b6101b4610831565b005b6101be61096e565b6040516101cb9190611f32565b60405180910390f35b6101ee60048036038101906101e991906119a4565b610a79565b6040516101fd93929190611f54565b60405180910390f35b61020e610abd565b005b610218610bf8565b005b610222610d35565b60405161022f9190611ecc565b60405180910390f35b610252600480360381019061024d91906119a4565b610d5e565b005b61025c610ff0565b6040516102699190611f10565b60405180910390f35b61027a61107e565b6040516102879190612101565b60405180910390f35b6102986111be565b005b6102a26112fb565b6040516102af9190612101565b60405180910390f35b6102c061142b565b6040516102cd9190611fcf565b60405180910390f35b6102f060048036038101906102eb9190611a0e565b6114ee565b6040516102fd9190611ecc565b60405180910390f35b610320600480360381019061031b91906119a4565b61152a565b005b61032a6116d4565b6040516103379190611f8b565b60405180910390f35b6103486116e7565b005b6004818154811061035757fe5b9060005260206000209060020201600091509050806000018054600181600116156101000203166002900480601f0160208091040260200160405190810160405280929190818152602001828054600181600116156101000203166002900480156104035780601f106103d857610100808354040283529160200191610403565b820191906000526020600020905b8154815290600101906020018083116103e657829003601f168201915b5050505050908060010154905082565b6003600660009054906101000a900460ff16600581111561043057fe5b81600581111561043c57fe5b1461044657600080fd5b60011515600360003373ffffffffffffffffffffffffffffffffffffffff1673ffffffffffffffffffffffffffffffffffffffff16815260200190815260200160002060000160009054906101000a900460ff161515146104dc576040517f08c379a00000000000000000000000000000000000000000000000000000000081526004016104d390612081565b60405180910390fd5b60001515600360003373ffffffffffffffffffffffffffffffffffffffff1673ffffffffffffffffffffffffffffffffffffffff16815260200190815260200160002060000160019054906101000a900460ff16151514610572576040517f08c379a0000000000000000000000000000000000000000000000000000000008152600401610569906120e1565b60405180910390fd5b81600360003373ffffffffffffffffffffffffffffffffffffffff1673ffffffffffffffffffffffffffffffffffffffff168152602001908152602001600020600101819055506001600360003373ffffffffffffffffffffffffffffffffffffffff1673ffffffffffffffffffffffffffffffffffffffff16815260200190815260200160002060000160016101000a81548160ff02191690831515021790555061064660016004848154811061062657fe5b90600052602060002090600202016001015461182490919063ffffffff16565b6004838154811061065357fe5b9060005260206000209060020201600101819055507f4d99b957a2bc29a30ebd96a7be8e68fe50a3c701db28a91436490b7d53870ca43383604051610699929190611ee7565b60405180910390a15050565b6001600660009054906101000a900460ff1660058111156106c257fe5b8160058111156106ce57fe5b146106d857600080fd5b60011515600360003373ffffffffffffffffffffffffffffffffffffffff1673ffffffffffffffffffffffffffffffffffffffff16815260200190815260200160002060000160009054906101000a900460ff1615151461076e576040517f08c379a0000000000000000000000000000000000000000000000000000000008152600401610765906120a1565b60405180910390fd5b600460405180604001604052808481526020016000815250908060018154018082558091505060019003906000526020600020906002020160009091909190915060008201518160000190805190602001906107cb929190611881565b506020820151816001015550506107ee600160025461182490919063ffffffff16565b6002819055507f57fd9a443a206aa57d09a57a5778b78d50d0e2003641ec27cd3f767359c97eba6002546040516108259190612101565b60405180910390a15050565b610839611879565b73ffffffffffffffffffffffffffffffffffffffff16610857610d35565b73ffffffffffffffffffffffffffffffffffffffff16146108ad576040517f08c379a00000000000000000000000000000000000000000000000000000000081526004016108a4906120c1565b60405180910390fd5b6002600660009054906101000a900460ff1660058111156108ca57fe5b8160058111156108d657fe5b146108e057600080fd5b6003600660006101000a81548160ff021916908360058111156108ff57fe5b02179055507f1b8e19a458c1bcd88553332c518cc5c4e2d5793e712ee766d4f1c14f672ef1f560405160405180910390a17f0a97a4ee45751e2abf3e4fc8946939630b11b371ea8ae39ccdc3056e98f5cc3f60026003604051610963929190611fa6565b60405180910390a150565b60606004805480602002602001604051908101604052809291908181526020016000905b82821015610a705783829060005260206000209060020201604051806040016040529081600082018054600181600116156101000203166002900480601f016020809104026020016040519081016040528092919081815260200182805460018160011615610100020316600290048015610a4e5780601f10610a2357610100808354040283529160200191610a4e565b820191906000526020600020905b815481529060010190602001808311610a3157829003601f168201915b5050505050815260200160018201548152505081526020019060010190610992565b50505050905090565b60036020528060005260406000206000915090508060000160009054906101000a900460ff16908060000160019054906101000a900460ff16908060010154905083565b610ac5611879565b73ffffffffffffffffffffffffffffffffffffffff16610ae3610d35565b73ffffffffffffffffffffffffffffffffffffffff1614610b39576040517f08c379a0000000000000000000000000000000000000000000000000000000008152600401610b30906120c1565b60405180910390fd5b600073ffffffffffffffffffffffffffffffffffffffff166000809054906101000a900473ffffffffffffffffffffffffffffffffffffffff1673ffffffffffffffffffffffffffffffffffffffff167f8be0079c531659141344cd1fd0a4f28419497f9722a3daafe3b4186f6b6457e060405160405180910390a360008060006101000a81548173ffffffffffffffffffffffffffffffffffffffff021916908373ffffffffffffffffffffffffffffffffffffffff160217905550565b610c00611879565b73ffffffffffffffffffffffffffffffffffffffff16610c1e610d35565b73ffffffffffffffffffffffffffffffffffffffff1614610c74576040517f08c379a0000000000000000000000000000000000000000000000000000000008152600401610c6b906120c1565b60405180910390fd5b6001600660009054906101000a900460ff166005811115610c9157fe5b816005811115610c9d57fe5b14610ca757600080fd5b6002600660006101000a81548160ff02191690836005811115610cc657fe5b02179055507f240cb87b2e4df4c318e72bd714d45a9cad60249e883ff56b1fffd83a4595a8fa60405160405180910390a17f0a97a4ee45751e2abf3e4fc8946939630b11b371ea8ae39ccdc3056e98f5cc3f60016002604051610d2a929190611fa6565b60405180910390a150565b60008060009054906101000a900473ffffffffffffffffffffffffffffffffffffffff16905090565b610d66611879565b73ffffffffffffffffffffffffffffffffffffffff16610d84610d35565b73ffffffffffffffffffffffffffffffffffffffff1614610dda576040517f08c379a0000000000000000000000000000000000000000000000000000000008152600401610dd1906120c1565b60405180910390fd5b6000600660009054906101000a900460ff166005811115610df757fe5b816005811115610e0357fe5b14610e0d57600080fd5b60011515600360008473ffffffffffffffffffffffffffffffffffffffff1673ffffffffffffffffffffffffffffffffffffffff16815260200190815260200160002060000160009054906101000a900460ff1615151415610ea4576040517f08c379a0000000000000000000000000000000000000000000000000000000008152600401610e9b90612041565b60405180910390fd5b60405180606001604052806001151581526020016000151581526020016000815250600360008473ffffffffffffffffffffffffffffffffffffffff1673ffffffffffffffffffffffffffffffffffffffff16815260200190815260200160002060008201518160000160006101000a81548160ff02191690831515021790555060208201518160000160016101000a81548160ff021916908315150217905550604082015181600101559050506005829080600181540180825580915050600190039060005260206000200160009091909190916101000a81548173ffffffffffffffffffffffffffffffffffffffff021916908373ffffffffffffffffffffffffffffffffffffffff1602179055507f9358bb242636b892ffeabcf2266d52aae96f1fc29d6157ad1225e89e858baa6982604051610fe49190611ecc565b60405180910390a15050565b6060600580548060200260200160405190810160405280929190818152602001828054801561107457602002820191906000526020600020905b8160009054906101000a900473ffffffffffffffffffffffffffffffffffffffff1673ffffffffffffffffffffffffffffffffffffffff168152602001906001019080831161102a575b5050505050905090565b60006004600660009054906101000a900460ff16600581111561109d57fe5b8160058111156110a957fe5b146110b357600080fd5b6110bb611879565b73ffffffffffffffffffffffffffffffffffffffff166110d9610d35565b73ffffffffffffffffffffffffffffffffffffffff161461112f576040517f08c379a0000000000000000000000000000000000000000000000000000000008152600401611126906120c1565b60405180910390fd5b6005600660006101000a81548160ff0219169083600581111561114e57fe5b02179055507f0e5e95ff8725ab3e7a4b6b59998a4c344c2aa8d1485f5e60cb7f337768e6134760405160405180910390a17f0a97a4ee45751e2abf3e4fc8946939630b11b371ea8ae39ccdc3056e98f5cc3f600460056040516111b2929190611fa6565b60405180910390a15090565b6003600660009054906101000a900460ff1660058111156111db57fe5b8160058111156111e757fe5b146111f157600080fd5b6111f9611879565b73ffffffffffffffffffffffffffffffffffffffff16611217610d35565b73ffffffffffffffffffffffffffffffffffffffff161461126d576040517f08c379a0000000000000000000000000000000000000000000000000000000008152600401611264906120c1565b60405180910390fd5b6004600660006101000a81548160ff0219169083600581111561128c57fe5b02179055507fc379d349a6301baf50fb2f98d829f4ae10b1cdb7c66f4e4d8117302df7b8cd4c60405160405180910390a17f0a97a4ee45751e2abf3e4fc8946939630b11b371ea8ae39ccdc3056e98f5cc3f600360046040516112f0929190611fa6565b60405180910390a150565b60006004600660009054906101000a900460ff16600581111561131a57fe5b81600581111561132657fe5b1461133057600080fd5b611338611879565b73ffffffffffffffffffffffffffffffffffffffff16611356610d35565b73ffffffffffffffffffffffffffffffffffffffff16146113ac576040517f08c379a00000000000000000000000000000000000000000000000000000000081526004016113a3906120c1565b60405180910390fd5b600080905060008090505b6004805490508110156114205781600482815481106113d257fe5b906000526020600020906002020160010154111561141357600481815481106113f757fe5b9060005260206000209060020201600101549150806001819055505b80806001019150506113b7565b506001549250505090565b606060046001548154811061143c57fe5b90600052602060002090600202016000018054600181600116156101000203166002900480601f0160208091040260200160405190810160405280929190818152602001828054600181600116156101000203166002900480156114e15780601f106114b6576101008083540402835291602001916114e1565b820191906000526020600020905b8154815290600101906020018083116114c457829003601f168201915b5050505050905080905090565b600581815481106114fb57fe5b906000526020600020016000915054906101000a900473ffffffffffffffffffffffffffffffffffffffff1681565b611532611879565b73ffffffffffffffffffffffffffffffffffffffff16611550610d35565b73ffffffffffffffffffffffffffffffffffffffff16146115a6576040517f08c379a000000000000000000000000000000000000000000000000000000000815260040161159d906120c1565b60405180910390fd5b600073ffffffffffffffffffffffffffffffffffffffff168173ffffffffffffffffffffffffffffffffffffffff161415611616576040517f08c379a000000000000000000000000000000000000000000000000000000000815260040161160d90612021565b60405180910390fd5b8073ffffffffffffffffffffffffffffffffffffffff166000809054906101000a900473ffffffffffffffffffffffffffffffffffffffff1673ffffffffffffffffffffffffffffffffffffffff167f8be0079c531659141344cd1fd0a4f28419497f9722a3daafe3b4186f6b6457e060405160405180910390a3806000806101000a81548173ffffffffffffffffffffffffffffffffffffffff021916908373ffffffffffffffffffffffffffffffffffffffff16021790555050565b600660009054906101000a900460ff1681565b6116ef611879565b73ffffffffffffffffffffffffffffffffffffffff1661170d610d35565b73ffffffffffffffffffffffffffffffffffffffff1614611763576040517f08c379a000000000000000000000000000000000000000000000000000000000815260040161175a906120c1565b60405180910390fd5b6000600660009054906101000a900460ff16600581111561178057fe5b81600581111561178c57fe5b1461179657600080fd5b7f344c25562921d075a298d34b6dd1fd00d36ff293974539dfd4a8c625d9f0064c60405160405180910390a16001600660006101000a81548160ff021916908360058111156117e157fe5b02179055507f0a97a4ee45751e2abf3e4fc8946939630b11b371ea8ae39ccdc3056e98f5cc3f60006001604051611819929190611fa6565b60405180910390a150565b60008082840190508381101561186f576040517f08c379a000000000000000000000000000000000000000000000000000000000815260040161186690612061565b60405180910390fd5b8091505092915050565b600033905090565b828054600181600116156101000203166002900490600052602060002090601f016020900481019282601f106118c257805160ff19168380011785556118f0565b828001600101855582156118f0579182015b828111156118ef5782518255916020019190600101906118d4565b5b5090506118fd9190611901565b5090565b61192391905b8082111561191f576000816000905550600101611907565b5090565b90565b60008135905061193581612317565b92915050565b600082601f83011261194c57600080fd5b813561195f61195a82612149565b61211c565b9150808252602083016020830185838301111561197b57600080fd5b6119868382846122b7565b50505092915050565b60008135905061199e8161232e565b92915050565b6000602082840312156119b657600080fd5b60006119c484828501611926565b91505092915050565b6000602082840312156119df57600080fd5b600082013567ffffffffffffffff8111156119f957600080fd5b611a058482850161193b565b91505092915050565b600060208284031215611a2057600080fd5b6000611a2e8482850161198f565b91505092915050565b6000611a438383611a72565b60208301905092915050565b6000611a5b8383611e71565b905092915050565b611a6c8161226f565b82525050565b611a7b81612214565b82525050565b611a8a81612214565b82525050565b6000611a9b82612195565b611aa581856121d0565b9350611ab083612175565b8060005b83811015611ae1578151611ac88882611a37565b9750611ad3836121b6565b925050600181019050611ab4565b5085935050505092915050565b6000611af9826121a0565b611b0381856121e1565b935083602082028501611b1585612185565b8060005b85811015611b515784840389528151611b328582611a4f565b9450611b3d836121c3565b925060208a01995050600181019050611b19565b50829750879550505050505092915050565b611b6c81612226565b82525050565b611b7b81612281565b82525050565b6000611b8c826121ab565b611b9681856121f2565b9350611ba68185602086016122c6565b611baf816122f9565b840191505092915050565b6000611bc5826121ab565b611bcf8185612203565b9350611bdf8185602086016122c6565b611be8816122f9565b840191505092915050565b6000611c00602683612203565b91507f4f776e61626c653a206e6577206f776e657220697320746865207a65726f206160008301527f64647265737300000000000000000000000000000000000000000000000000006020830152604082019050919050565b6000611c66602383612203565b91507f54686973206164647265737320697320616c726561647920726567697374726560008301527f64202100000000000000000000000000000000000000000000000000000000006020830152604082019050919050565b6000611ccc601b83612203565b91507f536166654d6174683a206164646974696f6e206f766572666c6f7700000000006000830152602082019050919050565b6000611d0c602583612203565b91507f596f75277265206e6f7420726567697374657265642c20796f752063616e277460008301527f20766f74650000000000000000000000000000000000000000000000000000006020830152604082019050919050565b6000611d72603283612203565b91507f596f75277265206e6f7420726567697374657265642c20796f752063616e277460008301527f207375626d697420612070726f706f73616c00000000000000000000000000006020830152604082019050919050565b6000611dd8602083612203565b91507f4f776e61626c653a2063616c6c6572206973206e6f7420746865206f776e65726000830152602082019050919050565b6000611e18602283612203565b91507f596f7527766520616c726561647920766f746520666f7220612070726f706f7360008301527f616c0000000000000000000000000000000000000000000000000000000000006020830152604082019050919050565b60006040830160008301518482036000860152611e8e8282611b81565b9150506020830151611ea36020860182611eae565b508091505092915050565b611eb781612265565b82525050565b611ec681612265565b82525050565b6000602082019050611ee16000830184611a81565b92915050565b6000604082019050611efc6000830185611a63565b611f096020830184611ebd565b9392505050565b60006020820190508181036000830152611f2a8184611a90565b905092915050565b60006020820190508181036000830152611f4c8184611aee565b905092915050565b6000606082019050611f696000830186611b63565b611f766020830185611b63565b611f836040830184611ebd565b949350505050565b6000602082019050611fa06000830184611b72565b92915050565b6000604082019050611fbb6000830185611b72565b611fc86020830184611b72565b9392505050565b60006020820190508181036000830152611fe98184611bba565b905092915050565b6000604082019050818103600083015261200b8185611bba565b905061201a6020830184611ebd565b9392505050565b6000602082019050818103600083015261203a81611bf3565b9050919050565b6000602082019050818103600083015261205a81611c59565b9050919050565b6000602082019050818103600083015261207a81611cbf565b9050919050565b6000602082019050818103600083015261209a81611cff565b9050919050565b600060208201905081810360008301526120ba81611d65565b9050919050565b600060208201905081810360008301526120da81611dcb565b9050919050565b600060208201905081810360008301526120fa81611e0b565b9050919050565b60006020820190506121166000830184611ebd565b92915050565b6000604051905081810181811067ffffffffffffffff8211171561213f57600080fd5b8060405250919050565b600067ffffffffffffffff82111561216057600080fd5b601f19601f8301169050602081019050919050565b6000819050602082019050919050565b6000819050602082019050919050565b600081519050919050565b600081519050919050565b600081519050919050565b6000602082019050919050565b6000602082019050919050565b600082825260208201905092915050565b600082825260208201905092915050565b600082825260208201905092915050565b600082825260208201905092915050565b600061221f82612245565b9050919050565b60008115159050919050565b60008190506122408261230a565b919050565b600073ffffffffffffffffffffffffffffffffffffffff82169050919050565b6000819050919050565b600061227a82612293565b9050919050565b600061228c82612232565b9050919050565b600061229e826122a5565b9050919050565b60006122b082612245565b9050919050565b82818337600083830152505050565b60005b838110156122e45780820151818401526020810190506122c9565b838111156122f3576000848401525b50505050565b6000601f19601f8301169050919050565b6006811061231457fe5b50565b61232081612214565b811461232b57600080fd5b50565b61233781612265565b811461234257600080fd5b5056fea264697066735822122084a0e5ba6cde685dd552b42dda214332e27ab0c1be7295803f7ebef9912572df64736f6c634300060b0033",
  "immutableReferences": {},
  "source": "// Voting.sol\r\n// SPDX-Licence-Identifier: MIT\r\n\r\npragma solidity 0.6.11;\r\npragma experimental ABIEncoderV2; //to make the getProposals() works, however might not be a safe solution\r\n//import \"https://github.com/OpenZeppelin/openzeppelin-contracts/contracts/access/Ownable.sol\"; // does not work using truffle\r\n//import \"https://github.com/OpenZeppelin/openzeppelin-contracts/contracts/math/SafeMath.sol\";\r\nimport \"@openzeppelin/contracts/math/SafeMath.sol\";\r\nimport \"@openzeppelin/contracts/access/Ownable.sol\";\r\n\r\n\r\ncontract Voting is Ownable{\r\n\r\n\tusing SafeMath for uint;\r\n\r\n\tstruct Voter {\r\n\t  \tbool isRegistred;\r\n\t  \tbool hasVoted;\r\n\t  \tuint votedProposalId;\r\n\t }\r\n\r\n\t  struct Proposal {\r\n\t  \tstring description;\r\n\t  \tuint voteCount;\r\n\t  }\r\n\r\n  \r\n  \tuint winningProposalId;\r\n  \tuint countProposalId = 0;\r\n\r\n\r\n\tmapping(address => Voter) public RegisteredVoters; // Le registre des voteurs\r\n\tProposal[] public proposals; //tableau des propositions\r\n\taddress[] public addresses; //Ajout - tableau des addresses\r\n\r\n\r\n\t  \r\n\t //Gestion des diffrents tats d'un vote\r\n\t enum WorkflowStatus {\r\n\t  RegisteringVoters,\r\n\t  ProposalsRegistrationStarted,\r\n\t  ProposalsRegistrationEnded,\r\n\t  VotingSessionStarted,\r\n\t  VotingSessionEnded,\r\n\t  VotesTallied\r\n\t }\r\n\r\n\t WorkflowStatus public currentWorkflowStatus = WorkflowStatus.RegisteringVoters; //on initilise l'tat du workflow\r\n\r\n\t modifier inState(WorkflowStatus state) { \r\n  \t\trequire (state == currentWorkflowStatus); \r\n  \t\t_; \r\n  \t}\r\n\r\n\t // Les diffrents vnements\r\n\t event VoterRegistrered(address voterAddress);\r\n\t event ProposalsRegistrationStarted();\r\n\t event ProposalsRegistrationEnded();\r\n\t event ProposalRegistred (uint proposalId);\r\n\t event VotingSessionStarted();\r\n\t event VotingSessionEnded();\r\n\t event Voted (address voter, uint proposalId);\r\n\t event VotesTallied();\r\n\t event WorkflowStatusChange(WorkflowStatus previousStatus, WorkflowStatus newStatus);\r\n\r\n\r\n\t//Fonctions pour rcuprer les divers lments ncessaires pour le FrontEnd\r\n\t//Rcuprer la liste des propositions enregistres...does not work compilation failed\r\n      function getProposals() public view returns(Proposal[] memory){\r\n       return proposals;\r\n   \t\t}\r\n\r\n\t//Getting addresses\r\n\t function getAddresses() public view returns(address[] memory){\r\n\t\t return addresses;\r\n\t }\r\n\r\n\t \r\n\r\n  \t//Etape 1 - L'administrateur du vote enregistre une liste blanche d'lecteurs identifis par leur adresse Ethereum\r\n  \t function addVoterToList(address _address) public onlyOwner inState(WorkflowStatus.RegisteringVoters)\r\n  \t {\r\n\t      require(RegisteredVoters[_address].isRegistred != true, \"This address is already registred !\");\r\n\t      RegisteredVoters[_address] = Voter(true, false, 0); \r\n\t\t  addresses.push(_address);\r\n\t      emit VoterRegistrered(_address);\r\n\t }\r\n\r\n\t \r\n\r\n\r\n\t //Etape 2 - L'admin commence la session d'enregistrement des propositions mises par les voteurs\r\n\t function startRegisteringProposal() public onlyOwner inState(WorkflowStatus.RegisteringVoters)\r\n\t  {\r\n\t  \temit ProposalsRegistrationStarted();\r\n\t  \tcurrentWorkflowStatus = WorkflowStatus.ProposalsRegistrationStarted;\r\n\t  \temit WorkflowStatusChange(WorkflowStatus.RegisteringVoters, WorkflowStatus.ProposalsRegistrationStarted);\r\n\t  }\r\n\r\n\t //Etape 3 - Les lecteurs inscrits sont autoriss  enregistrer leur propostion\r\n\t  function addProposal(string memory _description) public inState(WorkflowStatus.ProposalsRegistrationStarted)\r\n\t\t  {\r\n\t\t  \trequire (RegisteredVoters[msg.sender].isRegistred == true, \"You're not registered, you can't submit a proposal\");\r\n\t\t  \tproposals.push(Proposal(_description, 0)); //Adding the proposal to the array, only the description since count will be done later\r\n\t\t  \tcountProposalId = countProposalId.add(1); //instead of countProposalId++\r\n\t\t  \temit ProposalRegistred(countProposalId);\r\n\t\t  }\r\n\r\n\t//Etape 4 - L'administrateur met fin  la session d'enregistrement des propositions\r\n\t\tfunction endOfRegisteringProposal() public onlyOwner inState(WorkflowStatus.ProposalsRegistrationStarted)\r\n\t\t{\r\n\t\t\tcurrentWorkflowStatus = WorkflowStatus.ProposalsRegistrationEnded;\r\n\t\t\temit ProposalsRegistrationEnded();\r\n\t\t\temit WorkflowStatusChange(WorkflowStatus.ProposalsRegistrationStarted, WorkflowStatus.ProposalsRegistrationEnded);\r\n\t\t}\r\n\r\n\r\n\t// Etape 5 - L'administrateur commence la session de vote\r\n\t\tfunction startVote() public onlyOwner inState(WorkflowStatus.ProposalsRegistrationEnded)\r\n\t\t{\r\n\t\t\tcurrentWorkflowStatus = WorkflowStatus.VotingSessionStarted;\r\n\t\t\temit VotingSessionStarted();\r\n\t\t\temit WorkflowStatusChange(WorkflowStatus.ProposalsRegistrationEnded, WorkflowStatus.VotingSessionStarted);\r\n\t\t}\r\n\r\n\r\n\t//Etape 6 - Les lecteurs inscrits votent pour leur proposition preferee:\r\n\tfunction DoingTheVote (uint proposal_id) public inState(WorkflowStatus.VotingSessionStarted)\r\n\r\n\t {\r\n\t\trequire (RegisteredVoters[msg.sender].isRegistred == true, \"You're not registered, you can't vote\");\r\n\t\trequire (RegisteredVoters[msg.sender].hasVoted == false, \"You've already vote for a proposal\");\r\n\t\t\r\n\t\tRegisteredVoters[msg.sender].votedProposalId = proposal_id ; \r\n\t\tRegisteredVoters[msg.sender].hasVoted = true ;//updating status of the voter\r\n\t\tproposals[proposal_id].voteCount =  (proposals[proposal_id].voteCount).add(1); //order!\r\n\t\temit Voted (msg.sender, proposal_id);\r\n\r\n\t}\r\n\r\n\r\n\t//Etape 7- l'administrateur met fin  la session de vote\r\n\tfunction endVote() public inState(WorkflowStatus.VotingSessionStarted) onlyOwner\r\n\t\t{\r\n\t\t\tcurrentWorkflowStatus = WorkflowStatus.VotingSessionEnded;\r\n\t\t\temit VotingSessionEnded();\r\n\t\t\temit WorkflowStatusChange(WorkflowStatus.VotingSessionStarted, WorkflowStatus.VotingSessionEnded);\r\n\t\t}\r\n\r\n  \r\n    \r\n\t//Etape 8- l'administrateur comptabilise les votes et retourne l'id de la proposition qui a gagn\r\n\tfunction TheWinnerIs() public inState(WorkflowStatus.VotingSessionEnded) onlyOwner returns(uint)\r\n\t\t{\r\n\t\t\tuint winningVoteCount = 0 ;\r\n\t\t\tfor (uint i=0; i <proposals.length; i++) {\r\n\t\t\t\tif (proposals[i].voteCount > winningVoteCount) {\r\n\t\t\t\t\twinningVoteCount = proposals[i].voteCount;\r\n\t\t\t\t\twinningProposalId = i;\r\n\t\t\t\t\r\n\t\t\t    }\r\n\t\t\t}\r\n\t\t\t\r\n    \treturn winningProposalId;\r\n\r\n\t\t}\r\n\r\n\t// Etape 9 - L'administateur indique \"VotesTallied\"\r\n\tfunction votesTallied() public inState(WorkflowStatus.VotingSessionEnded) onlyOwner returns(uint)\r\n\t\t{\r\n\t\t\tcurrentWorkflowStatus = WorkflowStatus.VotesTallied;\r\n\t    \temit VotesTallied();\r\n\t    \temit WorkflowStatusChange(WorkflowStatus.VotingSessionEnded, WorkflowStatus.VotesTallied);\r\n\t\t}\r\n\r\n\r\n    // Etape 10 - \r\n      function LookAtTheWinningProposal() public view returns (string memory proposalName)\r\n      {\r\n        proposalName = proposals[winningProposalId].description;\r\n        return(proposalName);\r\n        }\r\n\r\n\r\n    \r\n    \r\n}\r\n\t\t\r\n\r\n\r\n",
  "sourcePath": "C:/Users/melan/Dapp_Voting_Defi_Alyra_DeployTestsnet/contracts/Voting.sol",
  "compiler": {
    "name": "solc",
    "version": "0.6.11+commit.5ef660b1.Emscripten.clang"
  },
  "schemaVersion": "3.3.2",
  "updatedAt": "2021-02-09T11:06:08.996Z",
  "networkType": "ethereum",
  "devdoc": {
    "kind": "dev",
    "methods": {
      "owner()": {
        "details": "Returns the address of the current owner."
      },
      "renounceOwnership()": {
        "details": "Leaves the contract without owner. It will not be possible to call `onlyOwner` functions anymore. Can only be called by the current owner. NOTE: Renouncing ownership will leave the contract without an owner, thereby removing any functionality that is only available to the owner."
      },
      "transferOwnership(address)": {
        "details": "Transfers ownership of the contract to a new account (`newOwner`). Can only be called by the current owner."
      }
    },
    "version": 1
  },
  "userdoc": {
    "kind": "user",
    "methods": {},
    "version": 1
  }
}